:10000000B0120020899200000990000065430000B2
:10001000979200009792000097920000979200003C
:1000200000000000000000000000000097920000A7
:100030009792000000000000AF4200009994000079
:1000400077850000A7840000338600007D860000CD
:1000500000000000000000000000000000000000A0
:100060000000000000000000000000000000000090
:100070000000000000000000000000000000000080
:100080000000000000000000000000000000000070
:100090000000000000000000000000000000000060
:1000A0000000000000000000000000000000000050
:1000B0000000000000000000000000000000000040
:1000C0000000000000000000000000000000000030
:1000D0000000000000000000000000000000000020
:1000E0000000000000000000000000000000000010
:1000F0000000000000000000000000000000000000
:1001000000000000000000000000000000000000EF
:1001100000000000000000000000000000000000DF
:1001200000000000000000000000000000000000CF
:1001300000000000000000000000000000000000BF
:1001400000000000000000000000000000000000AF
:10015000000000000000000000000000000000009F
:10016000000000000000000000000000000000008F
:10017000000000000000000000000000000000007F
:10018000000000000000000000000000000000006F
:10019000000000000000000000000000000000005F
:1001A000000000000000000000000000000000004F
:1001B000000000000000000000000000000000003F
:1001C000FFFFFFFFFFFFFFFFFFFFFFFFFFFFFFFF3F
:1001D000FFFFFFFFFFFFFFFFFFFFFFFFFFFFFFFF2F
:1001E000FFFFFFFFFFFFFFFFFFFFFFFFFFFFFFFF1F
:1001F000FFFFFFFFFFFFFFFFFFFFFFFFFFFFFFFF0F
:1002000010B5054C237833B9044B13B1044800E012
:1002100000BF0123237010BD08050020000000006E
:1002200014C9000008B5034B1BB10349034800E0A3
:1002300000BF08BD000000000C05002014C900002C
:1002400080B500AF1D4801F04FFE40F2051007F0E9
:1002500057FA0346002B12D101214FF4837007F0A7
:100260002FFA4FF4FA7003F015FA00214FF483705F
:1002700007F026FA4FF4FA7003F00CFA11E00121AE
:100280004FF4837007F01CFA4FF4FA6003F002FA9F
:1002900000214FF4837007F013FA4FF4FA7003F063
:1002A000F9F940F2051007F02BFA03461946044805
:1002B00001F01AFE012003F0EDF9C6E700A10000ED
:1002C00014A1000080B400AF034B1B681846BD4664
:1002D0005DF8047B704700BF2405002080B582B024
:1002E00000AF1B4B1B68002B02D0194B1B689847B3
:1002F00003F0C6FF7860174B1B680133154A136083
:1003000003F03AF838603B689B6C5A1E3B689A646D
:100310003B689B6C002B12D13B685A6C3B689A641B
:100320003B6893F8343043F00803DAB23B6883F853
:100330003420786803F0A8FF02F02AFD02E0786814
:1003400003F0A2FF03F00EFE00BF0837BD4680BDDC
:10035000280500202405002080B485B000AF786017
:100360007B68002B03DA4FF0FF33FB6027E07B68EC
:10037000164A82FB03129211DB17D31A4FF47A72DA
:1003800002FB03F3FB607A68104B83FB02139911A5
:10039000D317CB1A4FF47A7101FB03F3D31A4FF43E
:1003A0007A7202FB03F303F2E733084A82FB03127B
:1003B0009211DB17D31A1A46FB681344FB60FB68E3
:1003C00018461437BD465DF8047B7047D34D621064
:1003D00080B400AF00231846BD465DF8047B70472B
:1003E00080B400AF00231846BD465DF8047B70471B
:1003F00080B400AF00231846BD465DF8047B70470B
:1004000080B400AF00231846BD465DF8047B7047FA
:1004100080B582B000AF094B7B6005E07B681B684C
:1004200098477B6804337B607B68054A9342F5D329
:1004300000BF00BF0837BD4680BD00BFF0A0000070
:10044000F4A0000080B582B000AF094B7B6005E0EE
:100450007B681B6898477B6804337B607B68054A30
:100460009342F5D300BF00BF0837BD4680BD00BF33
:10047000F4A00000FCA0000080B500AF00F036F84A
:100480000023184680BD80B582B000AF7860FFF7CA
:10049000D9FF07F004FD00BF0837BD4680BDFFFF50
:1004A00080B584B002AF142301930A2300934FF464
:1004B0000063002209490A4803F00CF878607B6861
:1004C000002B04D1D5220749074801F04BFE78687C
:1004D00002F05EFF00BF0837BD4680BD8704000004
:1004E00028A1000040A1000030A1000080B500AFAD
:1004F00003F0C6FE08F0DAFF01F0CEF803F072FE5A
:1005000002F00EFCFFF7CCFF03F086FE00F06CFA61
:1005100002F022FC0023184680BD80B584B000AFF5
:10052000F860B9601346FB80FB68002B02D14FF0E6
:10053000FF3318E0B86800F01AF80346002B02D029
:100540004FF0FF330FE0FB68BA680921184602F04C
:1005500059F9FB68FA88DA82FB6800229A76FB6810
:1005600000221A83002318461037BD4680BD80B58F
:1005700082B000AF78600921786802F0B9FA0346CA
:1005800018460837BD4680BD80B584B000AF78609E
:100590000B467B800023FB607B68002B04D1D022BC
:1005A0003749384801F0DEFD7B68184602F086FACC
:1005B0000346092B04D0D1223149334801F0D2FD42
:1005C0007B68DB8A03F01003002B14D17B685B6A25
:1005D000002B09D07B685B6A78689847F860FB68F5
:1005E000002B01D0FB6847E07B68DB8A43F01003F7
:1005F0009AB27B68DA827B68DB8A03F00803002BFF
:1006000008D07B681B8B03F00803002B02D06FF02F
:10061000060331E07B689B6A002B07D07B689B6AEE
:100620007A88114678689847F86007E07B8823F05D
:10063000F0031B051B0D9AB27B681A83FB68002B25
:1006400003D0FB6813F1060F15D17B681B8B43F0B9
:1006500008039AB27B681A837B689B7E0133DAB207
:100660007B689A767B689B7E002B04D1FF2204492D
:10067000064801F077FDFB6818461037BD4680BD7F
:1006800010A2000054A1000064A10000FCA1000021
:1006900080B584B000AF78600023FB607B68002BDE
:1006A00005D14FF489721E491E4801F05BFD7B683D
:1006B000184602F003FA0346092B05D040F2131244
:1006C0001749194801F04EFD7B689B7E002B02D133
:1006D0004FF0FF331FE07B689B7E013BDAB27B6803
:1006E0009A767B689B7E002B01D0002313E07B6809
:1006F000DB6A002B04D07B68DB6A78689847F86077
:10070000FB68002B03D0FB6813F1060F02D17B6856
:1007100000221A83FB6818461037BD4680BD00BF13
:1007200020A2000054A1000064A1000090B585B093
:1007300000AFF860B9607A603B60FB68002B05D1C0
:100740004FF4A0721849194801F00CFDFB681846D7
:1007500002F0B4F90346092B05D040F241121249C8
:10076000134801F0FFFCFB689B7E002B05D14FF086
:10077000FF3000F0FDFD002311E0FB681B6B002B38
:1007800008D0FB681C6B3B687A68B968F868A047BA
:10079000034604E06FF0050000F0EAFD0023184670
:1007A0001437BD4690BD00BF30A2000054A1000028
:1007B00064A1000090B585B000AFF860B9607A60C0
:1007C0003B60FB68002B05D140F26B1218491948B9
:1007D00001F0C8FCFB68184602F070F90346092BCB
:1007E00005D04FF4B6721249134801F0BBFCFB6808
:1007F0009B7E002B05D14FF0FF3000F0B9FD0023A8
:1008000011E0FB685B6B002B08D0FB685C6B3B68FE
:100810007A68B968F868A047034604E06FF00500FD
:1008200000F0A6FD002318461437BD4690BD00BF5A
:1008300040A2000054A1000064A1000080B582B075
:1008400000AF786039607B68002B05D140F2AB12B5
:100850000C490D4801F086FC7B68184602F02EF921
:100860000346092B05D04FF4D6720649074801F01C
:1008700079FC7B683A68DA61002318460837BD4680
:1008800080BD00BF50A2000054A1000064A1000080
:1008900080B483B000AF786039607B681B683A68C9
:1008A0005A607B681A683B681A607B683A681A600D
:1008B0003B687A685A6000BF0C37BD465DF8047B20
:1008C000704780B483B000AF78607B681B687A683B
:1008D00052685A607B685B687A6812681A607B6845
:1008E0007A685A607B685A687B681A6000BF0C3768
:1008F000BD465DF8047B704780B582B000AF78607C
:100900007B68143319460348FFF7C2FF00BF08375E
:10091000BD4680BD0000002090B583B000AF00232D
:100920007B600D4B3B603B681B683A689A420ED077
:100930003B681B68143B7B6003F0A2FC04467B68A9
:1009400014331846FFF7BDFF204603F09DFC7B687B
:1009500018460C37BD4690BD0000002080B582B01F
:1009600000AFFFF7D9FF78607B68002B1BD07B6856
:100970009B6F3B603B68002B02D03B6878689847D0
:10098000786802F07DF80346012B03D1786801F006
:100990009FFFE6E77B689B6A184601F0B1FB786829
:1009A00002F030F8DDE700BF00BF0837BD4680BD6C
:1009B00080B584B000AF78600023FB600CE0094A8A
:1009C000FB6852F82330BB60BB68002B01D0BB68CA
:1009D0009847FB680133FB60FB68032BEFD9FFF7F7
:1009E000BDFFE9E7AC06002080B588B004AF002366
:1009F000FB6024E03B1DFA681549184601F01CFA1B
:100A0000FB68DB01134A9818FB681B02124A134467
:100A1000391D202203921F2202924FF4807201920C
:100A2000009300230D4A02F06FFCFB68DB01094ACA
:100A30001344184602F0ACFCFB680133FB60FB6812
:100A4000002BD7D000BF00BF1037BD4680BD00BF10
:100A50006CA200002C050020AC050020B1090000AC
:100A600080B483B000AF78607B687A685A607B6836
:100A70005A687B681A6000BF0C37BD465DF8047B7E
:100A8000704780B483B000AF786039607B685B6882
:100A90003A681A607B685A683B685A607B683A68B3
:100AA0005A603B687A681A6000BF0C37BD465DF833
:100AB000047B704780B483B000AF78607B681B68AC
:100AC0007A689A420CBF01230023DBB218460C3728
:100AD000BD465DF8047B704780B582B000AF78609A
:100AE0007B6814331846FFF7BBFF0023184608370E
:100AF000BD4680BD80B586B000AFF860B9601346D2
:100B0000FB71B86802F054FEFB79002B02D0012B78
:100B100007D031E0BB6814331946F868FFF7B1FF1E
:100B200031E0FB681B687B6117E07B69143B3B612C
:100B3000BB6893F835203B6993F835309A4209D267
:100B40003B6903F11402BB68143319461046FFF7E2
:100B500098FF06E07B691B687B617A69FB689A42B3
:100B6000E3D17A69FB689A420CD1BB681433194609
:100B7000F868FFF786FF05E0A3220549054801F064
:100B8000F1FA00E000BF002318461837BD4680BDCB
:100B90006CA7000074A2000080B584B000AF78603C
:100BA0007B681B68143BFB60F86802F065FE00235D
:100BB00018461037BD4680BD80B584B000AFF860E0
:100BC000B9607A60FB70FB68002B05D14FF4967218
:100BD0001749184801F0C6FA7B68B3F5803F05D382
:100BE00040F22D121249144801F0BCFAFB78002B98
:100BF00008D0FB78012B05D04FF497720C490F48B1
:100C000001F0B0FAFB68BA680221184601F0FAFD5B
:100C1000FB681846FFF760FF7B689AB2FB689A830F
:100C2000FB68FA785A72002318461037BD4680BD1B
:100C300054A7000078A2000088A200009CA2000037
:100C400090B587B000AF786039607B68002B05D124
:100C500040F2E5125549564801F084FA7B6818467F
:100C600001F02CFF0346022B05D04FF4F3724F49DD
:100C7000504801F077FA504B1B68002B04D04E4BC4
:100C80001B687A681046984703F0FAFA04467B68B6
:100C90009B8B002B09D07B689B8B013B9AB27B68B6
:100CA0009A83204603F0F0FA71E03B68002B05D1EF
:100CB000204603F0E9FA6FF0010372E003F0E0FA76
:100CC000786102F001FA0346002B09D037493B480E
:100CD00001F00AF940F206223449394801F042FA9B
:100CE00003F0CEFA386102F047FB0346002B09D12E
:100CF0002E49344801F0F8F840F206222B493048DA
:100D000001F030FA03F0BCFAF86000F01DFB034676
:100D1000002B09D025492C4801F0E6F840F20622C4
:100D20002249274801F01EFAF86803F0ADFA386945
:100D300003F0AAFA786903F0A7FA02F01DFBB86085
:100D4000BB6800221A637B6803F114007B685B7A3E
:100D50001A46B968FFF7CEFE3B68002B0BDDBB6877
:100D60004C333A460021184603F080F8BB684C33F8
:100D7000184602F01FFF204603F086FA02F008F83A
:100D8000BB681B6B002B02D0BB681B6B09E00F4BD1
:100D90001B68002B04D00D4B1B687A6810469847DF
:100DA000002318461C37BD4690BD00BF60A7000059
:100DB00078A20000D8A200008C070020B4A3000095
:100DC00074A20000E0A3000050A3000090070020E0
:100DD000B0B582B000AF78607B68002B05D140F2DF
:100DE0005F222649264801F0BDF97B68184601F0CC
:100DF00065FE0346022B05D04FF418721F492148A7
:100E000001F0B0F9204B1B68002B04D01E4B1B686F
:100E10007A6810469847002503F032FA04467B684A
:100E200014331846FFF746FE0346002B06D17B68B5
:100E300014331846FFF7B0FE012512E07B689B8B48
:100E40004FF6FF72934206D07B689B8B01339AB2B8
:100E50007B689A8305E0204603F016FA6FF00203E0
:100E600007E0204603F010FA012D01D101F090FFB8
:100E7000002318460837BD46B0BD00BF80A700005C
:100E800078A20000D8A200009407002080B584B0AA
:100E900000AFF860B9601346FB71FB68002B05D109
:100EA00040F2E6221049114801F05CF9FB68BA688B
:100EB0000321184601F0A6FCFB681846FFF70CFE5C
:100EC000FB6801229A83FB6800221A62FB68FF22FA
:100ED0009A77FB680022DA77FB6801225A720023B6
:100EE00018461037BD4680BD90A7000018A400002A
:100EF00090B587B000AF7860396003F0C1F97861D0
:100F000002F0E2F80346002B09D07749774800F059
:100F1000EBFF4FF465727449754801F023F903F053
:100F2000AFF9386102F028FA0346002B09D16E4967
:100F3000704800F0D9FF4FF465726B496C4801F0BE
:100F400011F903F09DF9F86000F0FEF90346002B5B
:100F500009D06549684800F0C7FF4FF465726249DF
:100F6000634801F0FFF8F86803F08EF9386903F080
:100F70008BF9786903F088F97B68002B05D140F282
:100F8000973259495D4801F0EDF87B68184601F049
:100F900095FD0346032B05D04FF46672524958481D
:100FA00001F0E0F802F0E8F9B86003F069F90446EE
:100FB000544B1B68002B04D0524B1B687A681046B8
:100FC0009847BB6800221A637B681B6ABA689A421A
:100FD00010D17B68DB7FFF2B06D07B68DB7F013382
:100FE000DAB27B68DA776DE0204603F04DF96FF0F6
:100FF000020374E07B689B8B002B1ED07B689B8B6D
:10100000013B9AB27B689A837B68BA681A62BB68B4
:1010100093F835207B689A777B68DB7FFF2B06D0BF
:101020007B68DB7F0133DAB27B68DA774AE02046FF
:1010300003F02AF96FF0020351E03B68002B09D15D
:10104000BB686FF001021A63204603F01DF96FF0D0
:10105000010344E0BB6893F835207B681B6A93F872
:1010600035309A4207D27B68186ABB6835331A4616
:10107000022102F01FFB7B6803F114007B685B7A9E
:101080001A46B968FFF736FD3B68002B0BDDBB68DD
:101090004C333A460021184602F0E8FEBB684C3358
:1010A000184602F087FD204603F0EEF801F070FECE
:1010B000BB681B6B002B02D0BB681B6B0FE003F0FF
:1010C000DFF80446204603F0DFF80F4B1B68002BC7
:1010D00004D00D4B1B687A681046984700231846C9
:1010E0001C37BD4690BD00BFA0A70000B4A3000000
:1010F00074A20000E0A3000050A3000018A40000A8
:101100002CA400008C0700209007002090B587B029
:1011100000AF78607B68002B05D140F24442634900
:10112000634801F01FF87B68184601F0C7FC0346CE
:10113000032B05D040F245425C495E4801F012F8AD
:1011400000237B6103F09CF8386102F015F9034637
:10115000002B09D15549584800F0C6FE40F24A42DA
:101160005249564800F0FEFF03F08AF8F86000F09C
:10117000EBF80346002B09D04C49514800F0B4FE6F
:1011800040F24A4249494D4800F0ECFFF86803F04C
:101190007BF8386903F078F802F0EEF8B86003F0F5
:1011A0006FF80446474B1B68002B04D0454B1B6867
:1011B0007A68104698477B681B6ABA689A4209D0D9
:1011C000BB684FF0FF321A63204603F05DF84FF022
:1011D000FF3367E07B68DB7F013BDAB27B68DA775D
:1011E0007B68DB7F002B54D17B689A7F7B681B6A0E
:1011F00093F835309A4207D07B68186A7B681E33B3
:101200001A46022102F056FA7B6814331846FFF79B
:1012100051FC0346002B23D17B685B69143BBB6008
:101220007B68BA681A62BB6893F835207B689A7746
:101230007B68DB7FFF2B0DD07B68DB7F0133DAB26D
:101240007B68DA777B6814331846FFF7A5FC012327
:101250007B611EE0204603F017F86FF0020321E0E7
:101260007B689B8B4FF6FF7293420CD07B689B8B05
:1012700001339AB27B689A837B6800221A627B688A
:10128000FF229A7705E0204602F0FEFF6FF002038E
:1012900008E0204602F0F8FF7B69012B01D101F044
:1012A00077FD002318461C37BD4690BDB0A700004F
:1012B00018A400002CA40000E0A3000074A2000009
:1012C00050A300009407002080B582B000AF02F068
:1012D000D7FF78600A4B1B78DBB20133DAB2084BD8
:1012E0001A70084B1B68002B02D0064B1B689847EE
:1012F000786802F0C9FF00BF0837BD4680BD00BF57
:10130000C4060020BC06002080B582B000AF02F009
:10131000B7FF78600A4B1B68002B02D0084B1B6894
:101320009847084B1B78DBB2013BDAB2054B1A70C9
:10133000786802F0A9FF00BF0837BD4680BD00BF36
:10134000C0060020C406002080B582B000AF02F0C5
:1013500097FF7860054B1B78FB70786802F094FF6C
:10136000FB7818460837BD4680BD00BFC406002084
:1013700080B584B000AF7860FFF7E6FF0346002B2E
:1013800003D00A4A7B6813600CE001F0F5FFF860B7
:10139000FB68002B03D1054A7B68136002E0FB6801
:1013A0007A681A631037BD4680BD00BFC8060020AA
:1013B00080B489B000AFF860B9607A60FB68FB6107
:1013C000BB68DBB27B617B68032B40D9FB6803F011
:1013D0000303002B3BD1FB68BB617B691B027A696D
:1013E00013433B613B691B043A6913433B6116E0BD
:1013F000BB691A1DBA613A691A60BB691A1DBA61E4
:101400003A691A60BB691A1DBA613A691A60BB6908
:101410001A1DBA613A691A607B68103B7B607B6871
:101420000F2BE5D807E0BB691A1DBA613A691A604B
:101430007B68043B7B607B68032BF4D8BB69FB6152
:1014400005E0FB695A1CFA617A69D2B21A707B68AE
:101450005A1E7A60002BF4D1FB6818462437BD462B
:101460005DF8047B704780B48BB000AFF860B96062
:101470007A60FB687B62BB683B627B687B617B69EF
:101480000F2B4DD93A6A7B6A134303F00303002BF9
:1014900046D17B6AFB613B6ABB6122E0BA69131DDE
:1014A000BB61FB69191DF96112681A60BA69131DE5
:1014B000BB61FB69191DF96112681A60BA69131DD5
:1014C000BB61FB69191DF96112681A60BA69131DC5
:1014D000BB61FB69191DF96112681A607B69103BD9
:1014E0007B617B690F2BD9D80AE0BA69131DBB61F8
:1014F000FB69191DF96112681A607B69043B7B6105
:101500007B69032BF1D8FB697B62BB693B6207E017
:101510003A6A531C3B627B6A591C796212781A70D2
:101520007B695A1E7A61002BF2D1FB6818462C3772
:10153000BD465DF8047B704780B487B000AFF860AB
:10154000B9607A60FB687B61BB683B613A697B6923
:101550009A4226D23A697B6813447A699A4220D229
:101560007A697B6813447B613A697B6813443B6109
:1015700009E03B69013B3B617B69013B7B613B6966
:101580001A787B691A707B685A1E7A60002BF0D13A
:101590000CE03A69531C3B617B69591C79611278F4
:1015A0001A707B685A1E7A60002BF2D1FB681846CD
:1015B0001C37BD465DF8047B704780B487B000AF30
:1015C000F860B9607A607B68002B21D0FB687B6192
:1015D000BB683B613A69531C3B617B69591C79616B
:1015E00012781A701B78002B0CD104E07B695A1C0E
:1015F0007A6100221A707B68013B7B607B68002B5C
:10160000F4D105E07B68013B7B607B68002BE1D176
:10161000FB6818461C37BD465DF8047B704790B4E4
:1016200084B000AFF860B9607A60002413E0FB6812
:101630001A78BB68591CB9601B78D31ADBB25CB24C
:10164000002C0BD1FB685A1CFA601B78002B05D0CC
:101650007B68013B7B607B68002BE8D12346184602
:101660001037BD4690BC704780B485B000AF78603D
:101670007B68FB6002E0FB680133FB60FB681B7862
:10168000002BF8D1FA687B68D31A18461437BD4688
:101690005DF8047B7047FFFF80B582B002AF0B4856
:1016A00000F022FC0A4800F01FFC0A4B01930A4B91
:1016B0000093002301220421084800F015FC08488B
:1016C00000F012FC00BFBD4680BD00BFC4A70000F3
:1016D000D0A7000018A8000024A80000F4A700006C
:1016E00030A8000080B485B000AF786039603B68F6
:1016F0000A2B17D17B681B681946134BA3FB0123E8
:10170000DA0813469B0013445B00CA1AFA607B6830
:101710001B681A460C4BA3FB0223DB081A467B68A6
:101720001A600AE07B681B6803F00F03FB607B68AC
:101730001B681B091A467B681A60FB681846143739
:10174000BD465DF8047B7047CDCCCCCC90B482B064
:1017500000AF786000240DE023469B0023445B002B
:1017600018467B681B68591C7A6811601B78034413
:10177000A3F130047B681B681B78303B092BEBD945
:10178000234618460837BD4690BC7047B0B58CB0AC
:1017900000AFF860B9607A603B607B6CBB623C6C08
:1017A000BB6C03F04003002B01D06D4B00E06D4B90
:1017B0007B62BB6C03F01003002B03D0BB6C23F0E7
:1017C0000103BB64BB6C03F00103002B01D0302389
:1017D00000E0202387F82330002387F82F30BB6CEC
:1017E00003F00203002B1AD07B68002B06DA2D23AE
:1017F00087F82F307B685B427B6010E0BB6C03F0A6
:101800000403002B03D02B2387F82F3007E0BB6C99
:1018100003F00803002B02D0202387F82F30002587
:101820007B68002B19D12B465D1C07F13002134455
:10183000302203F8202C13E03B1D39681846FFF7CF
:1018400051FF03461A467B6A1A442B465D1C1278E8
:1018500007F130010B4403F8202C7B68002BEBD1FF
:101860007B6C9D4200DD7D647B6CE41ABB6C03F0F5
:101870001103002B15D197F82F30002B0DD0002C21
:101880000BDD013C09E0FA68BB689A4202D2FB68B2
:1018900020221A70FB680133FB6023465C1E002B7C
:1018A000F1DC97F82F30002B0BD0FA68BB689A4216
:1018B00003D2FB6897F82F201A70013CFB680133B4
:1018C000FB60BB6C03F01003002B1AD10AE0FA682E
:1018D000BB689A4203D2FB6897F823201A70FB6812
:1018E0000133FB6023465C1E002BF0DC09E0FA6844
:1018F000BB689A4202D2FB6830221A70FB6801333F
:10190000FB607B6C5A1E7A649D42F0DB0DE0FA6846
:10191000BB689A4206D207F130032B4413F8202CFF
:10192000FB681A70FB680133FB602B465D1E002BC1
:101930000DDDBB6A002BEAD109E0FA68BB689A4268
:1019400002D2FB6820221A70FB680133FB60234639
:101950005C1E002BF1DCFB6818463037BD46B0BD7D
:10196000CCA80000E0A8000080B592B004AFF860F9
:10197000B9607A603B60FB68BB62FA68BB6813447D
:101980007B627A6AFB689A4280F026824FF0FF33CE
:101990007B627A6AFB68D31ABB601DE27B681B78A6
:1019A000252B0BD0BA6A7B6A9A4203D27B681A78DD
:1019B000BB6A1A70BB6A0133BB620AE20023BB77C1
:1019C0007B6801337B607B681B782D2B04D1BB7F48
:1019D00043F01003BB77F3E77B681B782B2B04D114
:1019E000BB7F43F00403BB77EAE77B681B78202BBF
:1019F00004D1BB7F43F00803BB77E1E77B681B782A
:101A0000232B04D1BB7F43F02003BB77D8E77B684F
:101A10001B78302B04D1BB7F43F00103BB77CFE7AA
:101A200000BF4FF0FF33BB617B681B78303B092B55
:101A300005D83B1D1846FFF789FEB86115E07B68A5
:101A40001B782A2B11D17B6801337B603B681A1D00
:101A50003A601B68BB61BB69002B06DABB695B425D
:101A6000BB61BB7F43F01003BB774FF0FF337B615B
:101A70007B681B782E2B1ED17B6801337B607B68D3
:101A80001B78303B092B05D83B1D1846FFF75EFE3F
:101A900078610BE07B681B782A2B07D17B680133C8
:101AA0007B603B681A1D3A601B687B617B69002B79
:101AB00001DA00237B6100237B777B681B78682B2E
:101AC00003D07B681B786C2B05D17B681B787B77F8
:101AD0007B6801337B600A23FB777B681B78252BAF
:101AE00000F00881252BC0F21F81782B00F31C81A8
:101AF000582BC0F21981583B202B00F2158101A20E
:101B000052F823F0111D0000291D0000291D0000BE
:101B1000291D0000291D0000291D0000291D0000AD
:101B2000291D0000291D0000291D0000291D00009D
:101B3000891B00001F1D0000291D0000291D000039
:101B4000291D0000291D00001F1D0000291D000087
:101B5000291D0000291D0000291D0000291D00006D
:101B60000B1D0000BD1C0000291D0000291D0000E8
:101B7000F71B0000291D0000651D0000291D000045
:101B8000291D0000191D0000BB7F03F01003002B6E
:101B900010D109E0BA6A7B6A9A4202D2BB6A20225B
:101BA0001A70BB6A0133BB62BB69013BBB61BB6995
:101BB000002BEFDC3B681A1D3A601B68FB74BA6AA5
:101BC0007B6A9A4202D2BB6AFA7C1A70BB6A013302
:101BD000BB6209E0BA6A7B6A9A4202D2BB6A2022DF
:101BE0001A70BB6A0133BB62BB69013BBB61BB6955
:101BF000002BEFDCEDE03B681A1D3A601B683B628E
:101C00003B6A002B01D1824B3B620023FB6202E066
:101C1000FB6A0133FB62FA6ABB699A4205D0FB6A30
:101C20003A6A13441B78002BF2D17B69002B05DD47
:101C3000FA6A7B699A4201DD7B69FB62BB7F03F034
:101C40001003002B10D109E0BA6A7B6A9A4202D2D3
:101C5000BB6A20221A70BB6A0133BB62BB695A1E81
:101C6000BA61FA6A9A42EFDB00233B6310E0BA6A7A
:101C70007B6A9A4203D23B6A1A78BB6A1A70BB6AC3
:101C80000133BB623B6A01333B623B6B01333B6315
:101C90003A6BFB6A9A42EADB09E0BA6A7B6A9A42CB
:101CA00002D2BB6A20221A70BB6A0133BB62BB69D5
:101CB0005A1EBA61FA6A9A42EFDB8AE0BB69B3F155
:101CC000FF3F05D10823BB61BB7F43F00103BB7716
:101CD0003B681A1D3A601B681A46BB7F02937B69FA
:101CE0000193BB6900931023796AB86AFFF74EFD30
:101CF000B8626EE0BA6A7B6A9A4202D2BB6A252257
:101D00001A70BB6A0133BB6263E00823FB772AE0E9
:101D1000BB7F43F04003BB771023FB7723E0BB7FFF
:101D200043F00203BB771DE0BA6A7B6A9A4202D293
:101D3000BB6A25221A70BB6A0133BB627B681B78C1
:101D4000002B0BD0BA6A7B6A9A4203D27B681A785E
:101D5000BB6A1A70BB6A0133BB623AE07B68013B25
:101D60007B6036E000BF7B7F6C2B09D13B681A1D7E
:101D70003A601B687B63BB7F03F00203002B1AE011
:101D80007B7F682B0ED13B681A1D3A601B689BB2A3
:101D90007B63BB7F03F00203002B0CD07B6B1BB279
:101DA0007B6308E03B681A1D3A601B687B63BB7F5E
:101DB00003F00203002B7A6BF97FBB7F02937B69F0
:101DC0000193BB6900930B46796AB86AFFF7DEFCA2
:101DD000B8627B6801337B607B681B78002B7FF4E3
:101DE000DDADBB68002B0BD0BA6A7B6A9A4203D286
:101DF000BB6A00221A7003E07B6A013B00221A7062
:101E0000BA6AFB68D31A18463837BD4680BD00BF92
:101E10005CA8000080B584B000AFF860B9607A605B
:101E20007B68BA684FF0FF31F868FFF79DFD034605
:101E300018461037BD4680BD0EB480B585B000AFE2
:101E4000786007F12003BB60BA68F9697868FFF72A
:101E5000E1FFF860FB6818461437BD46BDE88040D6
:101E600003B0704780B400AF034B1B681846BD46F3
:101E70005DF8047B704700BFCC06002080B584B0BD
:101E800000AF7860124B1B68FB607868FEF76FFB51
:101E9000B860BA68FB689A4201D1002313E0BB68BE
:101EA000002B0FD00A4B1B68002B04D0084B1B687B
:101EB0001846FEF7EDFB4321B868FEF765FB044AC0
:101EC000BB681360FB6818461037BD4680BD00BF75
:101ED000CC06002080B483B000AF786000BF0C3720
:101EE000BD465DF8047B70470FB480B582B000AF8B
:101EF00007F114033B603B683A697F211048FFF704
:101F000033FD03467B607B687F2B01D97F237B6099
:101F10000C4B1B68002B03D10948FFF7DBFF06E0E1
:101F2000084B18687B68064A0021FEF743FC7B6873
:101F300018460837BD46BDE8804004B0704700BF72
:101F400004070020CC06002080B500AF0122034921
:101F50000348FEF79BFF00BF80BD00BF64A80000E0
:101F6000D806002080B500AF01F006FA0346002B2A
:101F700006D04FF0FF310448FEF7BAFF034600E0F9
:101F80000023184680BD00BFD806002080B582B06F
:101F900000AF78607B68002B05D04FF4AC62084935
:101FA000084800F0DFF801F0E7F90346002B02D003
:101FB0000548FFF7ABF800BF0837BD4680BD00BF3E
:101FC00008A900006CA80000D806002080B485B0E5
:101FD00000AFF860B9607A60FB68002B04D00D4B4D
:101FE0001B68DA69FB681A60BB68002B04D0094BD8
:101FF0001B681A6ABB681A607B68002B04D0054B0B
:102000001B685A6A7B681A6000BF1437BD465DF8CA
:10201000047B7047FC06002080B584B000AF786078
:1020200039607B68033323F00303FB603B6823F0D4
:102030000303BB60BA68FB689A4205D840F2B65207
:102040000A490B4800F08EF8BA68FB68D31A1A46A2
:102050007968084800F028F90346074A1360FFF73B
:1020600073FF00BF1037BD4680BD00BFF4A800005D
:102070007CA8000064A80000FC06002080B584B0A5
:1020800000AF7860FFF76EFFF8600C4B1B68796853
:10209000184600F08BF9B860F868FFF777FF084B37
:1020A0001B68002B04D0064B1B687968B8689847FA
:1020B000BB6818461037BD4680BD00BFFC06002037
:1020C000D006002080B584B000AF786039607B68AE
:1020D0003A6802FB03F31846FFF7D0FFF860FB688D
:1020E000002B08D07B683A6802FB03F31A460021F4
:1020F000F868FFF75DF9FB6818461037BD4680BDEC
:1021000080B584B000AF78600A4B1B68002B03D009
:10211000084B1B6878689847FFF724FFF8607868D9
:1021200000F078FAF868FFF731FF00BF1037BD46BE
:1021300080BD00BFD406002080B586B000AFF86037
:10214000B9607A60FFF70EFF78617A68B968F8685D
:10215000FFF73CFF7869FFF719FF00BF1837BD464E
:1021600080BDFFFF80B586B000AFF860B9607A60CF
:102170000023FB750C4B1B68002B0BD17B68BA68E6
:10218000F9680A48FFF7B0FE00BFFB7DDBB2002B09
:10219000FBD005E0044B1B687A68B968F86898477B
:1021A00000BF1837BD4680BD0007002094A800007E
:1021B00080B584B000AF786039607B689B6A3A680C
:1021C0009A4204D2822235493548FFF7CBFF7B681B
:1021D000DB6A3A689A4204D3832230493148FFF7D8
:1021E000C1FF7B689A6A3B685B681344FB603A688E
:1021F000FB689A4224D0FB681B6803F00103002BA4
:102200001ED17B68DB6AFA689A4219D07B681B6B27
:10221000FA689A4202D17B683A681A63FB68002226
:102220001A60FB685A683B685A607B689B6A3A6828
:10223000D11A7B689A6AFB685B6813440A469A6005
:102240007B689A6A3B689B681344BB60BA683B68CA
:102250009A421FD0BB681B6803F00103002B19D101
:102260007B681B6B3A689A4202D17B68BA681A6332
:102270003B6800221A603B685A68BB685A607B68FA
:102280009B6ABA68D11A7B689A6A3B685B68134498
:102290000A469A6000BF1037BD4680BD34AD0000CD
:1022A00018A900003CA9000080B58AB000AFF86012
:1022B000B9607A60BB68033323F003037B627B6AF7
:1022C00038333B623B6A033323F00303FB61BA6894
:1022D0007B68134423F00303BB61BB69182B53D9FC
:1022E000BB69183B3A6A9A424ED8BA69FB69D31A5D
:1022F000183B7B6138220021786AFFF759F87B6A26
:10230000FA680C21184600F07DFA7B6A254A5A616A
:102310007B6AFA699A617B6A7A69DA617B6A7A69AF
:102320005A63FA697B6A9A627B6A9B6A3B617B6A41
:1023300023F001023B691A607B6A5B6B03F10C02BC
:102340003B695A603B6900229A607B6A9A6A3B69E2
:102350005B681A447B6ADA627A6A7B6ADB6A42F0FB
:1023600001021A607B6A5A6B7B6ADB6A0C325A6024
:102370007B6A5A6B7B6ADB6A0C329A607B6A9A6A68
:102380007B6A1A637B6A08E0B968BA687B681344A1
:102390001A460548FFF7A8FD002318462837BD4612
:1023A00080BD00BF6CA9000074A9000080B588B092
:1023B00000AF786039603B68002B01D1002315E144
:1023C0007B68002B05D14FF490728A498A48FFF749
:1023D000C9FE7B68184600F071FB03460C2B05D044
:1023E00040F2211283498548FFF7BCFE7B681846FE
:1023F00000F046FB0346002B05D14FF491727D4956
:102400007F48FFF7AFFE7B68BB613B68033323F077
:1024100003033B60BB695B6B3A689A4201D90023B6
:10242000E4E03B680B2B01D80C233B60BB691A6BC3
:10243000BB699B6AD31AFB61CFE0BB699A6AFB69EF
:1024400013447B617B691B6803F00103002B40F0A0
:10245000BE807B695A68FB69D31A0C3B3A689A4282
:1024600000F2B5807B695A68FB69D31AA3F10C02AC
:102470003B6818339A4239D3FA693B6813440C33EA
:102480003B61BB699A6A3B691344FB60BB6923F0FB
:102490000102FB681A607B695A68FB685A60FB6836
:1024A000FA699A607B693A695A60FB685A68BB6945
:1024B0005B6B0C339A4206D0BB699A6AFB685B6817
:1024C00013443A699A60BB691A6A3B68134403F182
:1024D0000C02BB691A62BB695A6ABB691B6A9A42E1
:1024E0001AD2BB691A6ABB695A6215E0BB691A6ADB
:1024F0007B695B68B969896A7869411A5B1A1A4411
:10250000BB691A62BB695A6ABB691B6A9A4203D2E9
:10251000BB691A6ABB695A62BB6943F001027B69F5
:102520001A60BB691B6B7A699A4228D107E0BB69C4
:102530009A6ABB691B6B5B681A44BB691A63BB6907
:102540001B6B1B6803F00103002B05D0BB691A6BE2
:10255000BB69DB6A9A42EAD1BB691A6BBB69DB6A69
:102560009A420CD0BB691B6B1B6803F00103002B64
:1025700005D040F283121F492248FFF7F3FD7A6924
:102580003B6813440C33BA69D26A934205D940F2CE
:10259000851218491C48FFF7E5FD7B690C3303F0F1
:1025A0000303002B05D04FF4C37212491748FFF7FD
:1025B000D9FD7B6903F00303002B05D040F287129D
:1025C0000C491348FFF7CEFD7B690C330EE0BB6965
:1025D0009A6AFB6913445B68FB61BB695A6B3B6891
:1025E000D31AFA699A427FF628AF0023184620379B
:1025F000BD4680BD40AD0000B0A90000C0A90000EC
:10260000FCA9000024AA000074AA0000C4AA0000CB
:1026100010AB000080B584B000AF78607B68002B01
:1026200000F083807B6803F00303002B05D04FF498
:10263000027240494048FFF795FD7B680C3BFB6008
:10264000FB681B6823F00103BB60BB68002B05D14E
:102650004FF4057237493948FFF784FDFB681B6862
:1026600003F00103002B05D140F215223149344813
:10267000FFF778FDBB68184600F020FA03460C2BE4
:1026800005D040F216222B492E48FFF76BFDBB68A0
:10269000184600F0F5F90346002B05D140F2172249
:1026A00024492948FFF75EFDBB689B6A7A689A4215
:1026B00004D3BB68DB6A7A689A4205D34FF406728A
:1026C0001C492248FFF74EFDBB689A6AFB685B68AD
:1026D00013441B6823F001031A46BB68934205D0DC
:1026E00040F21A2213491A48FFF73CFDBB6823F059
:1026F0000102FB681A60BB681B6BFA689A4202D23F
:10270000BB68FA681A63BB681A6ABB689B6AF96897
:10271000CB1A1946FB685B68CB1A1A44BB681A626D
:10272000F968B868FFF744FD00E000BF1037BD4608
:1027300080BD00BF50AD000040AB0000E0AB00002A
:10274000F8AB000008AC000050AC000088AC000002
:10275000FCAC000080B483B000AF786039607B6867
:102760001B683A685A607B681A683B681A607B6825
:102770003A681A603B687A685A6000BF0C37BD46F9
:102780005DF8047B704780B483B000AF78607B68ED
:102790001B687A6852685A607B685B687A6812685E
:1027A0001A607B687A685A607B685A687B681A602E
:1027B00000BF0C37BD465DF8047B704780B485B020
:1027C00000AF0346FB710023FB600FE00C4AFB687F
:1027D0001B0113441B78FA799A4204D1FB681B0150
:1027E000074A134406E0FB680133FB60FB68082BD3
:1027F000ECDD002318461437BD465DF8047B7047B6
:102800000800002090B589B000AFF8600B467A60F0
:10281000FB720023FB61FB7A1846FFF7CFFFB8611C
:10282000BB69002B05D14FF4AB7225492548FFF752
:1028300099FC00F009FCBB695B68FB6112E0FB6975
:102840000C3B7B617B69002B09D07A69FB689A425B
:1028500005D14FF4B3721A491B48FFF783FCFB699B
:102860001B68FB61BB690433FA699A42E7D100F047
:1028700001FCFB7A63F07F03DAB2FB681A72FB6833
:10288000082279681846FEF798FE104B1B68002B4B
:1028900003D00E4B1B68F868984701F0F1FC044622
:1028A000BB691A1DFB680C3319461046FFF752FF2F
:1028B000204601F0E9FC00BF2437BD4690BD00BFB3
:1028C000F4AD000060AD000078AD0000840700208A
:1028D00090B583B000AF78607B68002B05D140F2E3
:1028E00093120F490F48FFF73DFC0F4B1B68002B5D
:1028F00003D00D4B1B68786898477B6800221A72DA
:1029000001F0BEFC04467B680C331846FFF73BFF22
:10291000204601F0B9FC00BF0C37BD4690BD00BF9A
:1029200004AE000088AD00008807002090B587B095
:1029300000AF03463960FB7101F0A2FC7861FEF73D
:1029400003FD0346002B09D029492A48FFF7CCFA9A
:1029500040F2B71226492848FFF704FC786901F0D5
:1029600093FCFB791846FFF729FF38613B69002B80
:1029700005D140F2BB121E492048FFF7F3FB3B692B
:10298000DB681846FFF77AFBF860FB68002B01D183
:10299000002329E03B69DB681A460021F868FEF74E
:1029A00007FDFB68FA791A72FB6800225A72FB680D
:1029B000082239681846FEF700FE114B1B68002BF1
:1029C00003D00F4B1B68F868984701F059FC044688
:1029D0003B691A1DFB680C3319461046FFF7BAFE17
:1029E000204601F051FCFB6818461C37BD4690BDDF
:1029F00018AE00009CAD0000C4AD000060AD00004A
:102A00008407002090B583B000AF78607B68002B0E
:102A100005D140F2F51216491648FFF7A3FB7B6873
:102A20001B7A5BB2002B05DA4FF4FB721049124897
:102A3000FFF798FB114B1B68002B03D00F4B1B6853
:102A4000786898477B6800221A7201F019FC0446E6
:102A50007B680C331846FFF796FE204601F014FC05
:102A60007868FFF74DFB00BF0C37BD4690BD00BF37
:102A70002CAE000088AD0000C8AD00008807002023
:102A800080B582B000AF78607B68002B05D14FF431
:102A9000067208490848FFF765FB7B681B7A5BB242
:102AA000002B01DA012300E0002318460837BD4659
:102AB00080BD00BF40AE000088AD000080B582B090
:102AC00000AF78607B68002B05D140F22B220649CD
:102AD0000648FFF747FB7B681B7A03F07F03DBB2F6
:102AE00018460837BD4680BD5CAE000088AD0000CA
:102AF00080B586B000AF78600B46FB7000233B6169
:102B000000237B610023FB60FB781846FFF756FE2D
:102B1000F8607B68002B02D0FB68002B01D10023FA
:102B200035E001F0ADFBB860FEF70EFC0346002B6C
:102B300009D019491948FFF7D7F940F24922164937
:102B40001748FFF70FFBB86801F09EFB00F07CFA16
:102B5000FB685B687B6112E07B690C3B3B613B6916
:102B6000082279681846FEF75AFD0346002B03D168
:102B700000F080FA3B690AE07B691B687B61FB68B7
:102B800004337A699A42E7D100F074FA00231846B8
:102B90001837BD4680BD00BF70AE00009CAD000080
:102BA000C4AD000080B483B000AF78607B687A6801
:102BB0005A607B685A687B681A6000BF0C37BD4654
:102BC0005DF8047B704780B483B000AF78603960F3
:102BD0007B685B683A681A607B685A683B685A6031
:102BE0007B683A685A603B687A681A6000BF0C37A5
:102BF000BD465DF8047B704780B483B000AF786059
:102C00007B681B687A6852685A607B685B687A6880
:102C100012681A607B687A685A607B685A687B68B9
:102C20001A6000BF0C37BD465DF8047B704780B466
:102C300083B000AF78607B681B687A689A420CBFEB
:102C400001230023DBB218460C37BD465DF8047B38
:102C50007047FFFF80B584B000AF78607B68002BC1
:102C600004D15F221C491D48FFF77CFA7B689B6AF0
:102C70001B78232B11D17B68DB691A467B689B6A22
:102C80009A420AD97B68DB691A467B689B6A1946B7
:102C90007B68DB6A0B449A420CD97B681946104862
:102CA000FFF722F901F0ECFA0346FB60FB68002B0A
:102CB000FCD10DE07B68DB691A467B689B6A203398
:102CC0009A4205D87B6819460648FFF70DF9FFE7D9
:102CD00000BF1037BD4680BDE8AE000080AE0000EA
:102CE00094AE0000B0AE0000B0B582B000AF786026
:102CF000094B1B68184601F0C9FD0346013B1C4601
:102D0000064B53F83430A3F114057B681C602B4646
:102D100018460837BD46B0BD980800209807002027
:102D200098B500AF094B00221A80002406E0E300AA
:102D3000074A13441846FFF735FF01341F2CF6DD10
:102D4000044B00221A6000BF98BD00BF9C08002001
:102D5000980700209808002090B583B000AF3B1D75
:102D60001846FFF7C1FF0446084B1C60204600F0E0
:102D700033F9032384F8343004F11C03184601F0BE
:102D8000CCFA00BF0C37BD4690BD00BFA0080020A4
:102D900080B586B000AF01F073FAF8605C4BB3F910
:102DA0000030002B40F0AC805A4B1B68002B00F029
:102DB000A78000233B613B1D1846FFF795FF786114
:102DC000554B1B6893F8343003F00703032B2CD1C9
:102DD000514B1B6893F835301A467B689A4203D2F0
:102DE0004D4B1B687B6115E04B4B1B6893F83530EE
:102DF0001A467B689A420BD1474B1B6893F83430D4
:102E000003F00803002B03D1434B1B687B6101E0F7
:102E100001233B61404B1B6893F834203E4B1B68F9
:102E200022F00802D2B283F834203B4B1B687A6947
:102E30009A4250D07B68DAB2384B1A70364B1B6816
:102E4000BB60354A7B691360354B1B68002B04D08F
:102E5000334B1B687969B86898473B69002B02D0EF
:102E6000B86800F063F8786900F0B6F87B6993F809
:102E700034305BB223F007035BB243F003035BB271
:102E8000DAB27B6983F834207869FFF7E3FE254BDB
:102E90001B78DBB2002B14D1234B1B68002B03D013
:102EA000214B1B68B8689847BB681C331A467B697E
:102EB0001C331946104601F0EAF9F86801F0E4F90C
:102EC00022E0BB681C331A467B691C331946104646
:102ED00001F0DDF914E0104B1B68184600F07CF897
:102EE0000D4B1B6893F834305BB223F007035BB2E1
:102EF00043F003035AB2084B1B68D2B283F8342064
:102F0000F86801F0C1F900BF1837BD4680BD00BFA9
:102F10009C08002098080020A0080020A408002099
:102F2000A8080020C4060020AC08002090B583B09B
:102F300000AF78607B68002B05D140F2D222214996
:102F40002148FFF70FF901F09BF904461F4B1B685E
:102F50007A689A420ED17B6893F834305BB223F0E2
:102F600007035BB243F003035BB2DAB27B6883F81A
:102F7000342020E07B6893F834305BB223F0070301
:102F80005BB243F001035BB2DAB27B6883F83420B2
:102F90007B6893F83530DB000D4A1A447B681433A4
:102FA00019461046FFF70FFE7B689A6B094B1B68AA
:102FB0001343084A1360204601F066F900BF0C373E
:102FC000BD4690BD04AF000080AE0000A008002008
:102FD000980700209808002090B583B000AF786073
:102FE0007B68002B05D140F2333213491348FFF7B9
:102FF000B9F801F045F904467B6814331846FFF729
:10300000FBFD7B6893F83530DB000D4A134418460E
:10301000FFF70DFE0346002B07D07B689B6BDA435E
:10302000084B1B681340074A1360204601F02CF937
:1030300000BF0C37BD4690BD20AF000080AE000041
:10304000980700209808002098B500AF01F018F903
:103050000446074BB3F900309BB201339BB21AB25E
:10306000034B1A80204601F00FF900BF98BD00BF46
:103070009C08002098B500AF01F002F90446104BFF
:10308000B3F900309BB2013B9BB21AB20C4B1A80D1
:103090000B4BB3F90030002B0CDC094B00221A80DB
:1030A000204601F0F1F8074B1B68002B05D0FFF715
:1030B0006FFE02E0204601F0E7F800BF98BD00BFB8
:1030C0009C080020A008002080B400AF044BB3F996
:1030D00000309BB21846BD465DF8047B704700BFC8
:1030E0009C08002080B483B000AF78607B687A6869
:1030F0005A607B685A687B681A6000BF0C37BD460F
:103100005DF8047B704780B483B000AF78607B6863
:103110001B687A6852685A607B685B687A681268D4
:103120001A607B687A685A607B685A687B681A60A4
:1031300000BF0C37BD465DF8047B704790B583B087
:1031400000AF00F019F9786001F09AF80446786849
:10315000FFF742FF7B684C33184600F0E3FC7B68C6
:10316000042283F834207868FDF7C6FB204601F07E
:103170008BF8FFF70DFE00BF0C37BD4690BDFFFF7B
:1031800090B585B000AF78607B68FB60FB68002B72
:1031900004D1872219491A48FEF7E4FFFB6893F827
:1031A000343003F00703022B04D08822134915485A
:1031B000FEF7D8FFF868FFF781FC0346012B04D027
:1031C00089220E491048FEF7CDFF01F059F8044658
:1031D000FB686FF001021A63FB6814331846FFF7AF
:1031E00092FFF868FFF7A2FE204601F04DF8FFF7C6
:1031F000CFFD00BF1437BD4690BD00BFDCB000005E
:103200003CAF000050AF00008CAF000080B586B02E
:1032100002AFF860B9607A603B60FB68143318460F
:10322000FFF760FFFB687A681A62FB683A685A62C7
:10323000FB68BA699A62FB68FA69DA62FB68986AA5
:10324000FB68DB6A1A462321FEF7B2F8FB68186AAE
:10325000FB68596AFB689A6AFB68DB6A043B1A449C
:10326000244B01F0ABF80246FB68DA6197F8203096
:103270001F2B04D9BE2220492048FEF773FFFB68AC
:1032800097F8202083F83520FB6800229A63FB68BA
:103290000022DA63FB68002283F84020FB687A6A28
:1032A0005A64FB687A6A9A64FB6800221A63FB68B6
:1032B000002283F83420FB6800229A67FB68002212
:1032C000DA67FB6803F14C00F968002301930023DF
:1032D0000093FB680A4A00F0E7FB0A4B1B68002BCF
:1032E00003D0084B1B68F86898470023184610372E
:1032F000BD4680BD3D310000ECB00000D0AF000005
:1033000081310000B808002080B588B004AFF860B3
:10331000B9607A603B60FB68002B05D140F2311246
:1033200012491348FEF71EFFBB69002B05D14FF46D
:1033300099720E490F48FEF715FFBA680121F86827
:10334000FFF760FA7B6A039397F820300293FB69DA
:103350000193BB6900933B687A68B968F868FFF726
:1033600055FF034618461037BD4680BDFCB000002F
:103370003CAF0000F4AF000080B400AF034B1B680B
:103380001846BD465DF8047B704700BFA0080020CA
:1033900080B582B000AF78607B68002B05D14FF418
:1033A000B2721C491C48FEF7DDFE7B6893F834308E
:1033B00003F00703002B05D040F2651215491748AA
:1033C000FEF7D0FE7868FFF779FB0346012B05D0A6
:1033D0004FF4B3720F491248FEF7C4FE7B6893F8AE
:1033E00035301A46012393401A467B689A637B68FE
:1033F000022283F83420786800F03EFAFFF7BCFF21
:103400000346002B01D0FFF7C3FC00231846083702
:10341000BD4680BD0CB100003CAF00000CB0000008
:103420008CAF000080B584B000AF78607B68002B63
:1034300005D140F28F1223492348FEF793FE7868A6
:10344000FFF73CFB0346012B05D04FF4C8721D4922
:103450001E48FEF787FE7868FFF712FB0346002B35
:1034600005D140F2911217491948FEF77BFE7B689F
:1034700093F8343003F00703042B01D100231CE040
:103480007B6893F8343003F00703002B02D0786890
:10349000FFF7A2FD00F0F4FEF8607B684C3318469D
:1034A00000F040FB7B68042283F834207868FDF745
:1034B00023FAF86800F0E8FE002318461037BD46EE
:1034C00080BD00BF20B100003CAF00008CAF000009
:1034D00044B0000080B58AB004AFF860B9607A608B
:1034E0003B60F9680120FFF721FA78617B69002BC6
:1034F00001D100231BE03868FEF7C0FD38613B694D
:10350000002B04D17869FFF77DFA00230FE07B6A76
:10351000039397F8203002933B6801933B69009333
:103520007B68BA68F9687869FFF770FE7B691846AE
:103530001837BD4680BDFFFF80B584B000AF78600E
:103540007B68002B05D14FF4FB7223492348FEF71B
:1035500009FE7868FFF7B2FA0346012B05D040F266
:10356000F7121D491E48FEF7FDFD7868FFF788FA3F
:103570000346002B05D04FF4FC7217491948FEF79B
:10358000F1FD7B6893F8343003F00703042B01D17D
:1035900000231CE07B6893F8343003F00703002B12
:1035A00002D07868FFF718FD00F06AFEF8607B68CB
:1035B0004C33184600F0B6FA7B68042283F83420B6
:1035C0007868FDF799F9F86800F05EFE0023184668
:1035D0001037BD4680BD00BF34B100003CAF0000D5
:1035E0008CAF000074B0000090B585B000AF78607B
:1035F000FFF7C2FEF860FB68002B05D140F23F22C6
:103600001B491C48FEF7AEFDF868FFF757FA034662
:10361000012B05D04FF4107215491748FEF7A2FD93
:1036200000F02EFE0446FB6800221A63F86800F0E2
:10363000BFF8FB684C333A1D0021184600F016FC19
:10364000FB684C33184600F0B5FA204600F01CFE2B
:10365000FFF79EFBFB681B6B13F1020F02D1FB68A7
:1036600000221A63FB681B6B18461437BD4690BDD9
:1036700048B100003CAF00008CAF000080B582B0C4
:1036800000AF78607868FFF7AFFF03461846083749
:10369000BD4680BD80B584B000AF78607868FCF727
:1036A0005BFEF860F868FFF79FFF03461846103787
:1036B000BD4680BD90B587B000AFF860B9607A6054
:1036C000FB68002B05D140F2D52236493648FEF77B
:1036D00049FDF868FFF7F2F90346012B05D040F2E7
:1036E000D62230493148FEF73DFDBB68022B09D098
:1036F000BB68022B4FDCBB68002B34D0BB68012BAE
:1037000036D048E000F0BCFD0446FB6893F8343046
:1037100003F00703012B14D1F868FFF75DFC7B6809
:103720001A78FB6883F83520FB6893F835301A4621
:10373000012393401A46FB689A63F868FFF7F6FB8B
:103740000DE07B681A78FB6883F83520FB6893F8F6
:1037500035301A46012393401A46FB689A63204687
:1037600000F092FD18E0F868FFF712FE034614E03F
:10377000F868FFF785F90346012B04D1F868FFF7D5
:1037800051FE786103E0F868FFF7D6FE7861FFF735
:10379000FFFA7B6901E000BF002318461C37BD46D5
:1037A00090BD00BF58B100003CAF00008CAF0000DE
:1037B00090B583B000AF78607B68002B05D140F2F4
:1037C0004B3228492848FEF7CDFC7868FFF776F998
:1037D0000346012B05D04FF4537222492348FEF7CC
:1037E000C1FCFFF7C9FD02467B68934205D040F259
:1037F0004D321C491E48FEF7B5FC7B6893F8343007
:1038000003F00704012C04D0032C02D04FF0FF3347
:1038100024E000F035FD04467868FFF7DDFB7B68A7
:1038200093F834305BB223F007035BB243F002033A
:103830005BB2DAB27B6883F834207B684C3318467D
:1038400000F0CAFA204600F01FFD0A4B1B68002B4F
:1038500003D0084B1B6878689847002318460C373C
:10386000BD4690BD6CB100003CAF00008CAF0000C5
:10387000C0B00000B008002090B583B000AF786001
:103880007B68002B05D140F279321D491D48FEF7B7
:1038900069FC7868FFF712F90346012B05D040F266
:1038A0007A3217491848FEF75DFC7B6893F834308C
:1038B00003F00703022B02D04FF0FF331BE000F0B0
:1038C000DFFC04467B6814331846FFF71CFC7B685A
:1038D0004C33184600F080FA7868FFF727FB204643
:1038E00000F0D2FC094B1B68002B03D0074B1B6870
:1038F00078689847002318460C37BD4690BD00BF36
:1039000080B100003CAF00008CAF0000B408002084
:1039100080B483B000AF78607B687A685A607B6857
:103920005A687B681A6000BF0C37BD465DF8047B9F
:10393000704780B483B000AF786039607B681B68E3
:103940003A685A607B681A683B681A607B683A6814
:103950001A603B687A685A6000BF0C37BD465DF854
:10396000047B704780B483B000AF78607B681B68CD
:103970007A6852685A607B685B687A6812681A6075
:103980007B687A685A607B685A687B681A6000BFF7
:103990000C37BD465DF8047B704780B483B000AF40
:1039A00078607B681B687A689A420CBF0123002309
:1039B000DBB218460C37BD465DF8047B704780B516
:1039C00086B000AFF860B9607A603B60FB6897F83A
:1039D00020205A72FB685B7A23F00103DAB2FB689D
:1039E0005A72FB68BA68DA61FB687A681A62FB6827
:1039F00000229A62FB683A685A6200237B610BE0FE
:103A00007B690233DB00FA68134404331846FFF77E
:103A10007FFF7B6901337B617B69002BF0DD00BF99
:103A200000BF1837BD4680BD90B585B000AF786047
:103A3000396000F025FC04467868FFF7AEFF0346C6
:103A4000002B0CD17B681B68143BFB60FB689A6AF7
:103A50003B681A60204600F017FC002304E0204673
:103A600000F012FC4FF0FF3318461437BD4690BDEE
:103A700080B584B000AF78600023FB600BE0FB688A
:103A80000233DB007A68134404331846FFF76AFFF9
:103A9000FB680133FB60FB68002BF0DD00BF00BF5B
:103AA0001037BD4680BDFFFF80B586B002AFF8601D
:103AB000B9607A603B60FB68002B05D140F20F12C1
:103AC00014491548FEF74EFB7B68002B05D14FF4D7
:103AD000887210491148FEF745FBBB696FF0004240
:103AE000934205D340F211120A490D48FEF73AFB02
:103AF000FB68BA680A211846FEF784FE3B7F0093F4
:103B0000BB693A687968F868FFF759FF00BF10375A
:103B1000BD4680BDA4B2000094B10000A8B1000071
:103B2000BCB1000090B583B000AF78607B68002B1B
:103B300005D14FF493721B491B48FEF713FB7B68BA
:103B40001846FEF7BBFF03460A2B05D040F22712AA
:103B500014491648FEF706FB7B681846FEF790FFEF
:103B60000346002B05D14FF494720E491048FEF71E
:103B7000F9FA00F085FB04467868FFF779FF7B6867
:103B80005B7A23F00103DAB27B685A72204600F0B8
:103B90007BFB7B681846FEF79BFE002318460C371C
:103BA000BD4690BDB4B2000094B10000D4B1000095
:103BB00010B20000B0B588B000AF78607B68002B11
:103BC00005D14FF4CC727B497B48FEF7CBFA7B687A
:103BD0001846FEF773FF03460A2B05D040F29912F0
:103BE00074497648FEF7BEFA002400F049FB05460A
:103BF0007868FFF73DFF7B685B7A23F00103DAB258
:103C00007B685A726E4B1B68002B04D06C4B1B6890
:103C10007A6810469847FCF755FB02467B685B6A5A
:103C20001A447B689A627B685B7A03F00403002B7A
:103C300002D0644BBB6101E0634BBB61BB69BB60FD
:103C40000023FB6155E0FB699B0007F12002134450
:103C500053F8183C1B683B61FB69DB0014335B4283
:103C60003A691344FB60FB689A6A7B689B6A9A42D4
:103C700009D0FB689A6A7B689B6AD31A6FF000428E
:103C800093421FD300E000BFFB699B0007F12002B5
:103C9000134453F8183C1A68FB699B0007F1200194
:103CA0000B4443F8182CFB699B0007F120021344D6
:103CB00053F8182CFB69DB00B9690B445B689A4226
:103CC000C1D100E000BFFB69002B0FD0FB699B0056
:103CD00007F12002134453F8182CFB690133083212
:103CE0009B0007F120010B4443F8182CFB690133BA
:103CF000FB61FB69002BD6D0344B1B680133334A80
:103D00001360324B1B687B61BA687B6814331946B9
:103D10001046FFF70EFE0223FB611EE07B6903F0F5
:103D20000303002B1DD1FB69C3F101039B0007F1C5
:103D30002002134453F8180CFB69C3F1010302334A
:103D4000DB007A68134404331946FFF7F2FD7B6900
:103D50009B087B61FB690133FB61FB69012BDDD9AA
:103D600000E000BF7B685B7A43F00103DAB27B6856
:103D70005A727B685B7A03F00403002B0ED0144B5D
:103D80001B78012B0AD1134B93F8343003F007034F
:103D9000022B03D10F48FFF76FFD0124284600F0E6
:103DA00073FA002C01D0FEF7F3FF002318462037EA
:103DB000BD46B0BDC4B2000094B10000D4B1000053
:103DC00090070020C4080020BC080020540B0020ED
:103DD00098000020CC08002090B583B000AF786038
:103DE0007B68002B05D14FF404721C491C48FEF778
:103DF000B9F97B681846FEF761FE03460A2B05D029
:103E000040F2112215491748FEF7ACF97B685B7A3E
:103E100003F00103002B02D14FF0FF3319E0124BE6
:103E20001B68002B04D0104B1B687A68104698471B
:103E300000F026FA04467868FFF71AFE7B685B7A82
:103E400023F00103DAB27B685A72204600F01CFAB4
:103E5000002318460C37BD4690BD00BFD4B2000009
:103E600094B10000D4B100009407002090B585B053
:103E700000AFF860B9607A60FB68002B05D14FF4A1
:103E80000D7234493448FEF76DF9FB681846FEF7A9
:103E900015FE03460A2B05D040F235222D492F4846
:103EA000FEF760F900F0ECF90446BB68052B47D833
:103EB00001A252F823F000BFDB3E0000D13E00001B
:103EC000FD3E00000D3F00001D3F0000373F000099
:103ED000FB685A6A7B681A6033E07B681B686FF086
:103EE0000042934205D340F23F221A491C48FEF794
:103EF00039F97B681A68FB685A6222E0FB685B7AD2
:103F000023F00203DAB2FB685A721AE0FB685B7AAC
:103F100043F00203DAB2FB685A7212E0FB685B7A84
:103F200003F00103002B03D07B6801221A6002E03A
:103F30007B6800221A60FB689A6A7B681A6000E05E
:103F400000BF204600F0A0F9002318461437BD46F4
:103F500090BD00BFE4B2000094B10000D4B10000F5
:103F600074B2000090B585B000AF3B461846FFF72D
:103F7000CFFCFCF7A7F9F86000F082F904465FE097
:103F8000374B1B68143BBB60BB689B6AFA68D31A4B
:103F90006FF0004293425AD2324B1B68002B03D081
:103FA000304B1B68B8689847B868FFF761FDBB687D
:103FB0005B7A03F00203002B06D1BB685B7A23F027
:103FC0000103DAB2BB685A72BB6803F114023B46C4
:103FD00011461846FFF7ADFCBB68DB69BA68126A88
:103FE00010469847FCF76EF9F8601F4B1B68002BD2
:103FF00003D01D4B1B68B86898473B461846FFF72F
:10400000CCFC0346002B00D01AE0BB6814331846E2
:10401000FFF7A8FCBB685B7A03F00203002B0FD00C
:10402000BB685B7A03F00103002B09D0BB685B7AA5
:1040300023F00103DAB2BB685A72B868FFF7BAFD21
:104040000748FFF7AAFC0346002B99D000E000BF09
:10405000204600F019F900BF1437BD4690BD00BFDF
:10406000BC0800204C0B0020500B002090B585B000
:1040700000AF3B461846FFF74BFC00F001F9044641
:104080006BE03D4B1B68143BFB60FCF71BF9B86011
:10409000FB689B6ABA68D31A6FF00042934263D2FE
:1040A000364B1B68002B03D0344B1B68F8689847CD
:1040B000F868FFF7DDFCFB685B7A03F00203002B76
:1040C00006D1FB685B7A23F00103DAB2FB685A720F
:1040D000FB6803F114023B4611461846FFF729FC22
:1040E000274B00221A70204600F0CEF8FB68DB69EF
:1040F000FA68126A10469847224B1B68002B03D0BF
:10410000204B1B68F868984700F0BAF804461C4B2F
:1041100001221A703B461846FFF73FFC0346002B6E
:1041200000D01AE0FB6814331846FFF71BFCFB684D
:104130005B7A03F00203002B0FD0FB685B7A03F07D
:104140000103002B09D0FB685B7A23F00103DAB28C
:10415000FB685A72F868FFF72DFD0748FFF71DFC52
:104160000346002B8DD000E000BF204600F08CF805
:1041700000BF1437BD4690BDC40800204C0B002082
:1041800098000020500B002080B584B000AF78600C
:1041900007F1080319461248FFF746FC0346002BB7
:1041A00008D0FFF7E9F803461846FFF701FBFEF7D2
:1041B000EFFD11E0FCF786F8F860BA68FB68D31AE7
:1041C0006FF00042934207D2BA68FB68D31ABB6013
:1041D000BB681846FFF752FAFFF748FFD8E700BF61
:1041E000C408002080B582B000AF00237B6009E0E6
:1041F0007B68DB00074A13441846FFF789FB7B689E
:1042000001337B607B68002BF2D000BF00BF083712
:10421000BD4680BDBC08002080B586B004AF002339
:104220007B6009E07B68DB00104A13441846FFF707
:104230006FFB7B6801337B607B68002BF2D00A2325
:104240000393042302934FF400730193084B0093EC
:104250000023084A08490948FFF756F80748FFF7BE
:1042600097F800BF0837BD4680BD00BFC4080020D6
:104270004C090020894100009CB20000CC080020BD
:10428000EFF3108072B6704780F310887047444A8D
:104290001368012B04D04FF001031360414A1060F2
:1042A000414A116041484FF0805101607047EFF37F
:1042B000108272B63A48016851B34FF000010160B4
:1042C0003848016891B1EFF309811EF0100F08BF63
:1042D00021ED108B21E9F00F4FF000041EF0100FBC
:1042E00008BF012441F8044D006801602E490968A7
:1042F000096808C9B1E8F00F002B18BFB1EC108BAA
:1043000081F309884EF0100E002B18BF2EF0100E0E
:1043100082F310884EF0040E704723490860EFF3D3
:10432000148222F0040282F314881E494FF0000028
:1043300008601B494FF0010008601D481D49D0F876
:10434000002041EA0201016018484FF080510160ED
:1043500019480068006800BF80F3088861B662B63B
:10436000704700BFEFF308801EF0040F01D0EFF399
:10437000098020E9F00F40F804ED40F804ED1EF04C
:10438000040F02D080F3098801E080F3088800B5AB
:1043900000F0BAF95DF804EB4EF0040E704700002F
:1043A000600B0020580B00205C0B002004ED00E0A7
:1043B00020ED00E00000FFFF08ED00E080B489B0D0
:1043C00000AFF860B9607A603B607B680433BB6122
:1043D000BB6923F00703BB61BB69443BBB61BB699D
:1043E0007B610023FB6108E0FB699B007A69134451
:1043F000154A1A60FB690133FB61FB69102BF3D985
:10440000BA687B695A627B6900229A627B690022E2
:10441000DA627B6900221A637B6900225A633A6878
:104420007B699A63FA687B69DA637B694FF0807213
:104430001A647B6900221A60BB6918462437BD469E
:104440005DF8047B704700BFEFBEADDE80B500AF06
:104450002548FDF749FD254B1B889BB2194624488A
:10446000FDF742FD214B1B889BB203F00103002B9B
:1044700002D02048FDF738FD1C4B1B889BB203F08F
:104480000203002B02D01C48FDF72EFD174B1B88A2
:104490009BB203F00403002B02D01848FDF724FD63
:1044A000124B1B889BB203F00803002B02D0144868
:1044B000FDF71AFD0D4B1B889BB203F48073002B94
:1044C00002D01048FDF710FD084B1B889BB203F487
:1044D0000073002B02D00C48FDF706FD0B48FDF7DA
:1044E00003FD00BF80BD00BFF8B200002AED00E070
:1044F00008B3000020B300002CB3000038B3000064
:1045000040B3000048B3000054B3000060B30000A3
:1045100080B500AF2648FDF7E7FC264B1B78DBB2E1
:1045200019462548FDF7E0FC224B1B78DBB203F06F
:104530000103002B02D02148FDF7D6FC1D4B1B7850
:10454000DBB203F00203002B02D01D48FDF7CCFCC8
:10455000184B1B78DBB203F00403002B02D0194880
:10456000FDF7C2FC134B1B78DBB203F00803002BF2
:1045700002D01548FDF7B8FC0E4B1B78DBB203F0F8
:104580001003002B02D01148FDF7AEFC094B1B783D
:10459000DBB25BB2002B06DA0D4B1B6819460D48E7
:1045A000FDF7A2FC02E00C48FDF79EFC00BF80BDB9
:1045B00064B3000029ED00E070B3000088B3000090
:1045C00094B30000A0B30000B0B30000BCB300007F
:1045D00038ED00E0C4B3000060B3000080B500AF68
:1045E0002148FDF781FC214B1B78DBB2194620489E
:1045F000FDF77AFC1D4B1B78DBB203F00103002BA7
:1046000002D01C48FDF770FC184B1B78DBB203F09E
:104610000203002B02D01848FDF766FC134B1B78F1
:10462000DBB203F00803002B02D01448FDF75CFC5A
:104630000E4B1B78DBB203F01003002B02D01048A6
:10464000FDF752FC094B1B78DBB25BB2002B06DA9C
:104650000C4B1B6819460C48FDF746FC02E00B4862
:10466000FDF742FC00BF80BDD4B3000028ED00E0A0
:10467000E8B3000000B400000CB4000018B400005F
:1046800024B4000034ED00E030B4000060B300005A
:1046900080B500AF164B1B6803F00203002B02D05D
:1046A0001448FDF721FC124B1B6803F08043002BDC
:1046B00014D0114B1B78DBB2002B01D0FFF728FF81
:1046C0000E4B1B78DBB2002B01D0FFF787FF0C4BA2
:1046D0001B889BB2002B01D0FFF7B8FE044B1B6870
:1046E000002B02DA0748FDF7FFFB00BF80BD00BFCB
:1046F0002CED00E040B4000029ED00E028ED00E0E2
:104700002AED00E058B4000080B586B000AF7860B4
:104710007B6828337B617B6804333B61474B1B68B4
:10472000002B07D0454B1B6878699847F860FB68F9
:10473000002B7ED03B691B6C19464148FDF7D4FB2A
:104740003B695B6A19463F48FDF7CEFB3B699B6AB4
:1047500019463D48FDF7C8FB3B69DB6A19463B48F3
:10476000FDF7C2FB3B691B6B19463948FDF7BCFBE3
:104770003B695B6819463748FDF7B6FB3B699B68A8
:1047800019463548FDF7B0FB3B69DB6819463348ED
:10479000FDF7AAFB3B691B6919463148FDF7A4FBED
:1047A0003B695B6919462F48FDF79EFB3B699B6996
:1047B00019462D48FDF798FB3B69DB6919462B48E4
:1047C000FDF792FB3B691B6A19462948FDF78CFBF4
:1047D0003B695B6B19462748FDF786FB3B699B6B82
:1047E00019462548FDF780FB3B69DB6B19462348DA
:1047F000FDF77AFB7B681B6803F00403002B09D0EC
:10480000FEF7BAFD034619461D48FDF76DFB00F0A3
:104810002BF902E01B48FDF767FB7B681B6803F080
:104820001003002B02D11848FDF75EFBFFF730FFA5
:10483000FEE700BF1837BD4680BD00BF640B0020F7
:1048400068B4000078B4000088B4000098B4000098
:10485000A8B40000B8B40000C8B40000D8B4000088
:10486000E8B40000F8B4000008B5000018B5000076
:1048700028B5000038B5000048B5000058B5000064
:1048800068B5000088B50000A4B5000080B483B00E
:1048900000AF78607B6893FAA3F3B3FA83F37A6886
:1048A000002A01D14FF0FF33013318460C37BD46C3
:1048B0005DF8047B704780B483B000AF78607B689C
:1048C0001B687A689A420CBF01230023DBB21846AA
:1048D0000C37BD465DF8047B704780B485B000AFEF
:1048E00078600023FB607B68BB6005E0BB681B68E9
:1048F000BB60FB680133FB60BB681B687A689A4247
:10490000F4D1FB6818461437BD465DF8047B704748
:1049100080B500AF0248FDF7E7FA0023184680BDD6
:10492000C8B5000080B500AFFCF7B6FE00231846FE
:1049300080BDFFFF80B582B000AF786002E006481E
:10494000FDF7D2FA7B685A1E7A60002BF7D100BFC0
:1049500000BF0837BD4680BDD0B5000080B586B029
:1049600000AFF8607A603B600B46FB72FB7A18463A
:10497000FDF724FF78617B6904333B61FB683A698A
:104980001A60FB68FA7A1A72FB687A685A60FB68E8
:104990003A68DA60FB6800221A6100BF1837BD462A
:1049A00080BD80B58AB000AF7860396000237B623B
:1049B0003B6800221A613B68DB68002B03D03B6830
:1049C0001B7A002B01D100234AE03B681B687B6106
:1049D0007B68002B04D17B693B6201237B6201E091
:1049E0007B683B62FFF74CFC03463B617B6A002B14
:1049F00010D13B6A0C3BFB60FB681B7A23F0800301
:104A00003A68127A934205D03B691846FFF73CFC9E
:104A1000002325E00023BB613B685B68FB613B6AC8
:104A20001B683B623A6A7B699A4202D100233B626F
:104A30000EE0BB690133BB61FB691A1DFA613A6A7A
:104A40001A603B68DB68BA699A4200D0E7E700BFAA
:104A50003B691846FFF718FC3B68BA691A613B6A64
:104A600018462837BD4680BD90B5B9B002AF0023C7
:104A7000C7F8D430744BC7F8C83007F1800207F18B
:104A8000A00008230121FFF769FF0823C7F8C430FD
:104A9000D7F8C820D7F8C4106C48FDF725FAD7F826
:104AA000C400FFF747FF6A48FDF71EFA07F1A003AD
:104AB0001946D7F8D400FFF774FFC7F8D4000023D5
:104AC000C7F8D030AFE0D7F8D0309B0007F1D8025C
:104AD000134453F8583C0C3BC7F8C030FFF7D0FBE9
:104AE0000346C7F8BC30D7F8C0301B7A23F08003E8
:104AF00097F8A820934205D0D7F8BC301846FFF7A6
:104B0000C3FB8BE03B468022D7F8C0101846FCF769
:104B1000AAFCD7F8BC301846FFF7B6FBD7F8C03070
:104B2000C7F8B830D7F8B820D7F8B83093F8353090
:104B3000009313460822D7F8C4104648FDF7D4F96D
:104B4000D7F8B83093F8343003F0070387F8B7305C
:104B500097F8B730012B03D13F48FDF7C5F91EE0A8
:104B600097F8B730022B03D13C48FDF7BDF916E0AA
:104B700097F8B730002B03D13948FDF7B5F90EE0AF
:104B800097F8B730042B03D13648FDF7ADF906E0AE
:104B900097F8B730032B02D13348FDF7A5F9D7F8C2
:104BA000B8309B6AC7F8CC3004E0D7F8CC3001337A
:104BB000C7F8CC30D7F8CC301B78232BF5D0D7F8FA
:104BC000B830DA6AD7F8B8309B6A1946D7F8B830E7
:104BD000DB69CB1AD118D7F8B830D86AD7F8B83013
:104BE000DA6AD7F8B8309B6A1C46D7F8CC30E31A9B
:104BF0001344642203FB02F2D7F8B830DB6AB2FB3D
:104C0000F3F4D7F8B8309B6CD7F8B820126B019248
:104C10000093234602461548FDF766F9D7F8D030D1
:104C20000133C7F8D030D7F8B030D7F8D0209A4247
:104C3000FFF649AFD7F8D430002B7FF437AF00230D
:104C40001846DC37BD4690BDD4B50000DCB5000089
:104C500020B6000060B600006CB6000078B6000018
:104C600084B6000090B600009CB60000A8B6000014
:104C700080B584B000AF78607B681B68FB6013E090
:104C8000FB68143BBB60BB681A4608210B48FDF764
:104C90002BF9FB681B687A689A4202D00848FDF736
:104CA00023F9FB681B68FB60FA687B689A42E7D1CE
:104CB00000BF00BF1037BD4680BD00BFD0B60000AA
:104CC000D8B60000B0B596B002AF0023FB64424BEB
:104CD0007B643A4607F1200008230221FFF73EFEDD
:104CE00008233B647A6C396C3C48FDF7FDF8386C5E
:104CF000FFF720FE3A48FDF7F7F807F120031946C1
:104D0000F86CFFF74EFEF8640023BB6457E0BB6C01
:104D10009B0007F15002134453F8503C0C3BFB63DB
:104D2000FFF7AEFA0346BB63FB6B1B7A23F08003ED
:104D300097F82820934204D0BB6B1846FFF7A4FADB
:104D40003AE0BB6B1846FFF79FFAFB6B7B637B6B0C
:104D500014331846FFF7AFFD0346002B1AD17C6BC6
:104D60007B6B9B8B1D467B6B14331846FFF7B5FDA1
:104D700003460193009523460822396C1948FDF734
:104D8000B3F87B6B14331846FFF772FF1648FDF734
:104D9000ABF811E07C6B7B6B9B8B1D467B6B1433FC
:104DA0001846FFF79AFD0346019300952346082213
:104DB000396C0E48FDF798F8BB6C0133BB643B6B54
:104DC000BA6C9A42A3DBFB6C002B96D100231846E9
:104DD0005037BD46B0BD00BFDCB60000E8B60000ED
:104DE00004B700001CB700002CB7000030B700006B
:104DF000B0B596B002AF0023FB643D4B7B643A46EE
:104E000007F1200008230421FFF7A8FD08233B64D5
:104E10007A6C396C3748FDF767F8386CFFF78AFD14
:104E20003548FDF761F807F120031946F86CFFF7E4
:104E3000B8FDF8640023BB644EE0BB6C9B0007F137
:104E40005002134453F8503C0C3BFB63FFF718FA35
:104E50000346BB63FB6B1B7A23F0800397F8282083
:104E6000934204D0BB6B1846FFF70EFA31E0BB6BE0
:104E70001846FFF709FAFB6B7B637B6B143318460C
:104E8000FFF719FD0346002B19D17D6B7B6BDC69A5
:104E90007B6B14331846FFF720FD03460193009403
:104EA0002B460822396C1548FDF71EF87B6B14332E
:104EB0001846FFF7DDFE1248FDF716F809E07A6B99
:104EC0007B6BDB69009313460822396C0D48FDF7B4
:104ED0000BF8BB6C0133BB643B6BBA6C9A42ACDB26
:104EE000FB6C002B9FD1002318465037BD46B0BD48
:104EF00040B7000048B700006CB700008CB7000056
:104F00002CB70000A4B70000F0B599B004AF00239F
:104F1000FB64334B7B643A4607F1200008230321EE
:104F2000FFF71CFD08233B647A6C396C2D48FCF7B5
:104F3000DBFF386CFFF7FEFC2B48FCF7D5FF07F1D1
:104F400020031946F86CFFF72CFDF8640023BB64BE
:104F50003AE0BB6C9B0007F15002134453F8503CFD
:104F60000C3BFB63FFF78CF90346BB63FB6B1B7ABF
:104F700023F0800397F82820934204D0BB6B184697
:104F8000FFF782F91DE0BB6B1846FFF77DF9FB6B5D
:104F90007B637C6B7B6B1B6A1D467B6BDB7F1E46DA
:104FA0007B6B14331846FFF798FC03460393029675
:104FB00001950823009323460822396C0B48FCF71F
:104FC00093FFBB6C0133BB643B6BBA6C9A42C0DB92
:104FD000FB6C002BB3D1002318465437BD46F0BDFF
:104FE000B8B70000C0B70000E4B7000004B8000084
:104FF000F0B599B004AF0023FB64464B7B643A469E
:1050000007F1200008230521FFF7A8FC08233B64D3
:105010007A6C396C4048FCF767FF386CFFF78AFC04
:105020003E48FCF761FF07F120031946F86CFFF7D3
:10503000B8FCF8640023BB645FE0BB6C9B0007F125
:105040005002134453F8503C0C3BFB63FFF718F934
:105050000346BB63FB6B1B7A23F0800397F8282081
:10506000934204D0BB6B1846FFF70EF942E0BB6BCE
:105070001846FFF709F9FB6B7B637B6B143318460B
:10508000FFF719FC0346002B1ED17C6B7B6B5B8CFE
:105090001D467B6B1B8C1E467B6B14331846FFF73B
:1050A0001CFC034602930196009523460822396CA6
:1050B0001B48FCF719FF7B6B14331846FFF7D8FD2C
:1050C0001848FCF711FF15E07C6B7B6B5B8C1D4671
:1050D0007B6B1B8C1E467B6B14331846FFF7FDFB66
:1050E000034602930196009523460822396C0E4828
:1050F000FCF7FAFEBB6C0133BB643B6BBA6C9A42A3
:105100009BDBFB6C002B8ED1002318465437BD4629
:10511000F0BD00BF1CB8000024B8000048B8000073
:1051200064B800002CB700007CB80000B0B596B0A1
:1051300002AF0023FB64424B7B643A4607F1200038
:1051400008230621FFF70AFC08233B647A6C396CBC
:105150003C48FCF7C9FE386CFFF7ECFB3A48FCF71B
:10516000C3FE07F120031946F86CFFF71AFCF86438
:105170000023BB6457E0BB6C9B0007F15002134453
:1051800053F8503C0C3BFB63FFF77AF80346BB63D4
:10519000FB6B1B7A23F0800397F82820934204D0FE
:1051A000BB6B1846FFF770F83AE0BB6B1846FFF789
:1051B0006BF8FB6B7B637B6B14331846FFF77BFB51
:1051C0000346002B1AD17C6B7B6B9B8C1D467B6B43
:1051D00014331846FFF781FB0346019300952346DD
:1051E0000822396C1948FCF77FFE7B6B1433184694
:1051F000FFF73EFD1648FCF777FE11E07C6B7B6BFA
:105200009B8C1D467B6B14331846FFF766FB0346E9
:105210000193009523460822396C0E48FCF764FE82
:10522000BB6C0133BB643B6BBA6C9A42A3DBFB6C77
:10523000002B96D1002318465037BD46B0BD00BFA5
:1052400094B80000A0B80000BCB80000D4B80000BA
:105250002CB70000E8B8000080B596B002AF00237C
:10526000FB643E4B7B643A4607F1200008230A2189
:10527000FFF774FB08233B647A6C396C3848FCF701
:1052800033FE386CFFF756FB3648FCF72DFE07F16E
:1052900020031946F86CFFF784FBF8640023BB6415
:1052A00049E0BB6C9B0007F15002134453F8503C9B
:1052B0000C3BFB63FEF7E4FF0346BB63FB6B1B7A0F
:1052C00023F0800397F82820934204D0BB6B184644
:1052D000FEF7DAFF2CE0BB6B1846FEF7D5FFFB6B41
:1052E0007B63796B7B6B5B6A7A6B926A019200934A
:1052F0000B460822396C1C48FCF7F6FD7B6B5B7A89
:1053000003F00103002B03D01848FCF7EDFD02E089
:105310001748FCF7E9FD7B6B5B7A03F00203002B77
:1053200003D01448FCF7E0FD02E01348FCF7DCFD75
:10533000BB6C0133BB643B6BBA6C9A42B1DBFB6C58
:10534000002BA4D1FAF7BEFF034619460B48FCF721
:10535000CBFD002318465037BD4680BDFCB8000089
:1053600004B9000038B9000068B9000080B9000035
:1053700090B90000A0B90000ACB90000B8B90000B5
:1053800080B596B002AF0023FB64334B7B643A4692
:1053900007F1200008230921FFF7E0FA08233B6406
:1053A0007A6C396C2D48FCF79FFD386CFFF7C2FA18
:1053B0002B48FCF799FD07F120031946F86CFFF71D
:1053C000F0FAF8640023BB6439E0BB6C9B0007F182
:1053D0005002134453F8503C0C3BFB63FEF750FF64
:1053E0000346BB63FB6B1B7A23F0800397F82820EE
:1053F000934204D0BB6B1846FEF746FF1CE0BB6B24
:105400001846FEF741FFFB6B7B63796B7B6B1B7D63
:10541000182B06D87B6B1B7D1A46124B53F8223093
:1054200000E0114B7A6B927E019200930B460822AA
:10543000396C0E48FCF758FDBB6C0133BB643B6B09
:10544000BA6C9A42C1DBFB6C002BB4D10023184626
:105450005037BD4680BD00BF34BB00003CBB0000E0
:1054600064BB000014BD00002CBB000088BB000022
:1054700080B584B000AF786039600F48FCF734FD28
:105480000E4B1B68FB600AE0FB681968FB685B68F1
:105490001A460B48FCF728FDFB680C33FB60094BF0
:1054A0001B68FA689A42EFD30748FCF71DFD0023FA
:1054B00018461037BD4680BD78BD0000680B00203F
:1054C00094BD00006C0B0020A0BD000080B582B030
:1054D00000AF78603960FFF7C7FA00231846083735
:1054E000BD4680BD80B586B000AF786039600023CE
:1054F0007B6100233B610023FB6007F10C0207F195
:10550000100107F114031846FCF716FE7B691946D3
:105510000848FCF7E9FC3B6919460748FCF7E4FC3E
:10552000FB6819460548FCF7DFFC002318461837CE
:10553000BD4680BDA4BD0000B4BD0000C4BD0000D8
:1055400080B588B000AFF860B9607A60FB68FB6135
:105550000023BB6100237B6194E0FB6900221A7089
:10556000FB690133FB61BB690133BB61FB691B78DC
:10557000202B03D0FB691B78092B03D1BA69BB68C8
:105580009A42EAD37B69092B19D94648FCF7ACFC4F
:1055900000233B610BE03B699B007A6813441B6866
:1055A00019464148FCF7A0FC3B6901333B613A696D
:1055B0007B699A42EFD33D48FCF796FC6DE0BA69EF
:1055C000BB689A4264D2FB691B78222B3AD1FB69F3
:1055D0000133FB61BB690133BB617B699B007A6866
:1055E0001344FA691A607B6901337B6114E0FB693B
:1055F0001B785C2B0AD1FB6901331B78222B05D168
:10560000FB690133FB61BB690133BB61FB6901339A
:10561000FB61BB690133BB61FB691B78222B03D0A3
:10562000BA69BB689A42E2D3BA69BB689A4231D27E
:10563000FB6900221A70FB690133FB61BB6901330E
:10564000BB611FE07B699B007A681344FA691A60AA
:105650007B6901337B6105E0FB690133FB61BB6959
:105660000133BB61FB691B78202B07D0FB691B78DA
:10567000092B03D0BA69BB689A42EDD3BA69BB68FB
:105680009A4209D2BA69BB689A42FFF46FAF04E04C
:1056900000BF02E000BF00E000BF7B691846203772
:1056A000BD4680BDD4BD0000F4BD0000A0BD00001B
:1056B00080B584B000AF786039600023BB60134BC5
:1056C0001B68FB6017E0FB681B683A68796818463E
:1056D00004F0A4FB0346002B0AD1FB681A683B6860
:1056E00013441B78002B03D1FB689B68BB6007E069
:1056F000FB680C33FB60064B1B68FA689A42E2D3E6
:10570000BB6818461037BD4680BD00BF680B00203F
:105710006C0B002080B592B000AFF860B9607A6081
:1057200000237B64FB68002B05D140F20B122B4950
:105730002B48FCF717FD7B68002B09D14FF48672CC
:1057400026492848FCF70EFD02E07B6C01337B64A0
:10575000FA687B6C13441B78202B09D0FA687B6CA9
:1057600013441B78092B03D07A6CBB689A42ECD3A4
:105770007B6C002B02D14FF0FF332AE07B6C194683
:10578000F868FFF795FF38643B6C002B02D14FF0AF
:10579000FF331EE007F11403282200211846FBF70F
:1057A00007FE07F114031A46B968F868FFF7C8FE48
:1057B000F863FB6B002B02D14FF0FF3309E007F1D8
:1057C00014023B6C1146F86B984702467B681A60DE
:1057D000002318464837BD4680BD00BF90BE00007C
:1057E000F8BD0000FCBD000080B584B000AF78605B
:1057F000396005E07B6801337B603B68013B3B60BF
:105800003B68002B07D07B681B78202BF2D07B688D
:105810001B78092BEED03B68002B01D1002322E03E
:1058200007F108031A4639687868FFF773FF0346E3
:10583000002B01D1BB6816E07B68FB6002E0FB68CF
:105840000133FB60FB681B78202B03D0FB681B78BF
:10585000002BF4D1FB6800221A7079680448FCF729
:1058600043FB4FF0FF3318461037BD4680BD00BFE5
:1058700004BE000080B485B000AF786039607B68FA
:10588000FB6005E0FB680133FB603B6801333B6074
:10589000FB681B78002B09D03B681B78002B05D0D8
:1058A000FB681A783B681B789A42EBD0FA687B68F1
:1058B000D31A18461437BD465DF8047B7047FFFFC6
:1058C00080B588B000AF78600023FB610023BB6126
:1058D0007B681B78002B04D100210020FFF7C8FD56
:1058E0003DE0204B1B687B612AE07B691B683B61C4
:1058F000786804F065FA03461A463969786804F056
:105900008DFA0346002B18D1FB69002B06D13B69A9
:10591000BB61B86904F054FA0346FB613969B869A0
:10592000FFF7A8FFF860FA68FB699A4201DAFB68A2
:10593000FB6139690C48FCF7D7FA7B690C337B6152
:105940000A4B1B687A699A42CFD3BB69002B05D0FA
:10595000FB691A46B9697868FBF72FFE00BF20374C
:10596000BD4680BD680B00201CBE00006C0B0020F3
:1059700080B500AF184B1B6893F8213003F0020389
:10598000DBB2002B04D1154B00221A70134B20E020
:10599000134B1B68002B08D0114B1B688022194643
:1059A0000E4804F077FA0D4B13E00C4B0D4A92E8C9
:1059B0000300186004331970084804F001FA034624
:1059C0001A46064B134408491A460B461B88138097
:1059D000024B184680BD00BF700B0020780B0020E2
:1059E000740B0020A0BE0000A8BE000080B582B0ED
:1059F00000AF78600C4B1B68002B04D18E220B4942
:105A00000B48FCF7AFFB084B1A687B6803F00103F7
:105A1000D9B292F8213061F3410382F8213000BFFE
:105A20000837BD4680BD00BF700B002034BF0000AA
:105A3000ACBE000080B582B000AF0023FB701E4BEF
:105A40001B68002B04D1A2221C491D48FCF78AFBCD
:105A5000194B1B68D3F80C327B607B68002B1BD181
:105A60004FF0FF3323E0144B1B684FF0FF31184613
:105A7000FBF7E6F8104B1B68D3F80C327A689A42B1
:105A80000AD00D4B1B68D3F80C327B607B68002B6F
:105A900002D14FF0FF330AE0FA1C01234FF0FF312F
:105AA0007868FAF743FE0346012BDCD1FB781846F1
:105AB0000837BD4680BD00BF700B00204CBF000002
:105AC000ACBE000080B582B000AF78603960094B91
:105AD0001B68002B04D1C12207490848FCF742FB90
